{
  "address": "0x562c190f11009693FCf6feEf52a873E4B619e76F",
  "abi": [
    {
      "anonymous": false,
      "inputs": [
        {
          "indexed": true,
          "internalType": "uint256",
          "name": "voteId",
          "type": "uint256"
        },
        {
          "indexed": true,
          "internalType": "address",
          "name": "requester",
          "type": "address"
        }
      ],
      "name": "DecryptionAccessGranted",
      "type": "event"
    },
    {
      "anonymous": false,
      "inputs": [
        {
          "indexed": true,
          "internalType": "uint256",
          "name": "voteId",
          "type": "uint256"
        },
        {
          "indexed": true,
          "internalType": "address",
          "name": "voter",
          "type": "address"
        }
      ],
      "name": "VoteCast",
      "type": "event"
    },
    {
      "anonymous": false,
      "inputs": [
        {
          "indexed": true,
          "internalType": "uint256",
          "name": "voteId",
          "type": "uint256"
        },
        {
          "indexed": false,
          "internalType": "string",
          "name": "title",
          "type": "string"
        },
        {
          "indexed": false,
          "internalType": "string[]",
          "name": "options",
          "type": "string[]"
        },
        {
          "indexed": false,
          "internalType": "uint64",
          "name": "deadline",
          "type": "uint64"
        },
        {
          "indexed": true,
          "internalType": "address",
          "name": "creator",
          "type": "address"
        }
      ],
      "name": "VoteCreated",
      "type": "event"
    },
    {
      "inputs": [
        {
          "internalType": "uint256",
          "name": "voteId",
          "type": "uint256"
        },
        {
          "internalType": "externalEuint32",
          "name": "encryptedOptionIndex",
          "type": "bytes32"
        },
        {
          "internalType": "bytes",
          "name": "inputProof",
          "type": "bytes"
        }
      ],
      "name": "castVote",
      "outputs": [],
      "stateMutability": "nonpayable",
      "type": "function"
    },
    {
      "inputs": [
        {
          "internalType": "string",
          "name": "title",
          "type": "string"
        },
        {
          "internalType": "string",
          "name": "description",
          "type": "string"
        },
        {
          "internalType": "string[]",
          "name": "options",
          "type": "string[]"
        },
        {
          "internalType": "uint64",
          "name": "duration",
          "type": "uint64"
        }
      ],
      "name": "createVote",
      "outputs": [
        {
          "internalType": "uint256",
          "name": "voteId",
          "type": "uint256"
        }
      ],
      "stateMutability": "nonpayable",
      "type": "function"
    },
    {
      "inputs": [
        {
          "internalType": "uint256",
          "name": "voteId",
          "type": "uint256"
        }
      ],
      "name": "getEncryptedCounts",
      "outputs": [
        {
          "internalType": "euint32[]",
          "name": "encryptedCounts",
          "type": "bytes32[]"
        }
      ],
      "stateMutability": "view",
      "type": "function"
    },
    {
      "inputs": [
        {
          "internalType": "uint256",
          "name": "voteId",
          "type": "uint256"
        }
      ],
      "name": "getResults",
      "outputs": [
        {
          "internalType": "uint32[]",
          "name": "",
          "type": "uint32[]"
        }
      ],
      "stateMutability": "view",
      "type": "function"
    },
    {
      "inputs": [
        {
          "internalType": "uint256",
          "name": "voteId",
          "type": "uint256"
        }
      ],
      "name": "getVote",
      "outputs": [
        {
          "internalType": "string",
          "name": "title",
          "type": "string"
        },
        {
          "internalType": "string",
          "name": "description",
          "type": "string"
        },
        {
          "internalType": "string[]",
          "name": "options",
          "type": "string[]"
        },
        {
          "internalType": "uint64",
          "name": "deadline",
          "type": "uint64"
        },
        {
          "internalType": "address",
          "name": "creator",
          "type": "address"
        },
        {
          "internalType": "bool",
          "name": "isDecrypted",
          "type": "bool"
        },
        {
          "internalType": "uint256",
          "name": "totalVoters",
          "type": "uint256"
        }
      ],
      "stateMutability": "view",
      "type": "function"
    },
    {
      "inputs": [],
      "name": "getVoteCount",
      "outputs": [
        {
          "internalType": "uint256",
          "name": "",
          "type": "uint256"
        }
      ],
      "stateMutability": "view",
      "type": "function"
    },
    {
      "inputs": [
        {
          "internalType": "uint256",
          "name": "voteId",
          "type": "uint256"
        }
      ],
      "name": "getVoteStatus",
      "outputs": [
        {
          "internalType": "bool",
          "name": "isActive",
          "type": "bool"
        },
        {
          "internalType": "bool",
          "name": "isEnded",
          "type": "bool"
        },
        {
          "internalType": "bool",
          "name": "isDecrypted",
          "type": "bool"
        },
        {
          "internalType": "uint256",
          "name": "timeRemaining",
          "type": "uint256"
        }
      ],
      "stateMutability": "view",
      "type": "function"
    },
    {
      "inputs": [
        {
          "internalType": "uint256",
          "name": "voteId",
          "type": "uint256"
        },
        {
          "internalType": "address",
          "name": "voter",
          "type": "address"
        }
      ],
      "name": "hasUserVoted",
      "outputs": [
        {
          "internalType": "bool",
          "name": "",
          "type": "bool"
        }
      ],
      "stateMutability": "view",
      "type": "function"
    },
    {
      "inputs": [
        {
          "internalType": "uint256",
          "name": "",
          "type": "uint256"
        },
        {
          "internalType": "address",
          "name": "",
          "type": "address"
        }
      ],
      "name": "hasVoted",
      "outputs": [
        {
          "internalType": "bool",
          "name": "",
          "type": "bool"
        }
      ],
      "stateMutability": "view",
      "type": "function"
    },
    {
      "inputs": [
        {
          "internalType": "uint256",
          "name": "voteId",
          "type": "uint256"
        },
        {
          "internalType": "uint32[]",
          "name": "counts",
          "type": "uint32[]"
        }
      ],
      "name": "markAsDecrypted",
      "outputs": [],
      "stateMutability": "nonpayable",
      "type": "function"
    },
    {
      "inputs": [],
      "name": "protocolId",
      "outputs": [
        {
          "internalType": "uint256",
          "name": "",
          "type": "uint256"
        }
      ],
      "stateMutability": "pure",
      "type": "function"
    },
    {
      "inputs": [
        {
          "internalType": "uint256",
          "name": "voteId",
          "type": "uint256"
        }
      ],
      "name": "requestDecryptionAccess",
      "outputs": [],
      "stateMutability": "nonpayable",
      "type": "function"
    }
  ],
  "transactionHash": "0x00cb875250c22472dca0820b8848222bfa9cf83a7781d1a4461b391775ca23e6",
  "args": [],
  "numDeployments": 1,
  "solcInputHash": "a67a50a2c56544e5bd3dcecd54b8669a",
  "bytecode": "0x608060405234801561000f575f5ffd5b5061018a6100ae604080516080810182525f808252602082018190529181018290526060810191909152506040805160808101825273687820221192c5b662b25367f70076a37bc79b6c815273848b0066793bcc60346da1f49049357399b8d595602082015273a02cda4ca3a71d7c46997716f4283aa851c2881291810191909152731364cbbf2cdf5032c47d8226a6f6fbd2afcdacac606082015290565b80517f9e7b61f58c47dc699ac88507c4f5bb9f121c03808c5676a8078fe583e464970080546001600160a01b03199081166001600160a01b039384161790915560208301517f9e7b61f58c47dc699ac88507c4f5bb9f121c03808c5676a8078fe583e46497018054831691841691909117905560408301517f9e7b61f58c47dc699ac88507c4f5bb9f121c03808c5676a8078fe583e46497028054831691841691909117905560608301517f9e7b61f58c47dc699ac88507c4f5bb9f121c03808c5676a8078fe583e46497038054909216921691909117905550565b611ec2806101975f395ff3fe608060405234801561000f575f5ffd5b50600436106100cf575f3560e01c80638589c7a51161007d578063da1f12ab11610058578063da1f12ab14610216578063dc296ae11461021e578063e7b3387c14610231575f5ffd5b80638589c7a5146101db5780638e63a2c5146101f0578063b6d129f614610203575f5ffd5b80635a55c1f0116100ad5780635a55c1f0146101745780636be733bb1461019a57806381a60c0d146101bb575f5ffd5b8063045e3bab146100d35780630519bb83146100fc5780634385963214610137575b5f5ffd5b6100e66100e136600461175a565b610239565b6040516100f39190611771565b60405180910390f35b61010f61010a36600461175a565b6102e8565b60408051941515855292151560208501529015159183019190915260608201526080016100f3565b6101646101453660046117b3565b600260209081525f928352604080842090915290825290205460ff1681565b60405190151581526020016100f3565b61018761018236600461175a565b6103d3565b6040516100f39796959493929190611874565b6101ad6101a83660046119b3565b610673565b6040519081526020016100f3565b6101ce6101c936600461175a565b610935565b6040516100f39190611ae6565b6101ee6101e9366004611b23565b610a6c565b005b6101ee6101fe36600461175a565b610dc8565b6101ee610211366004611b9f565b610e7e565b6127116101ad565b61016461022c3660046117b3565b610fc5565b6001546101ad565b60608160015481106102885760405162461bcd60e51b8152602060048201526013602482015272159bdd1948191bd95cc81b9bdd08195e1a5cdd606a1b60448201526064015b60405180910390fd5b5f8381526020818152604091829020600401805483518184028101840190945280845290918301828280156102da57602002820191905f5260205f20905b8154815260200190600101908083116102c6575b505050505091505b50919050565b5f5f5f5f8460015481106103345760405162461bcd60e51b8152602060048201526013602482015272159bdd1948191bd95cc81b9bdd08195e1a5cdd606a1b604482015260640161027f565b5f8681526020819052604090206003810154429067ffffffffffffffff90811690821610801561037057506003820154600160e01b900460ff16155b600383015490975067ffffffffffffffff8082169083161080159750600160e01b90910460ff1695506103a3575f6103bd565b60038201546103bd90829067ffffffffffffffff16611c2d565b67ffffffffffffffff1693505050509193509193565b60608060605f5f5f5f8760015481106104245760405162461bcd60e51b8152602060048201526013602482015272159bdd1948191bd95cc81b9bdd08195e1a5cdd606a1b604482015260640161027f565b5f89815260208190526040902060038101546006820154825483926001840192600285019267ffffffffffffffff8316926801000000000000000081046001600160a01b031692600160e01b90910460ff1691879061048290611c4d565b80601f01602080910402602001604051908101604052809291908181526020018280546104ae90611c4d565b80156104f95780601f106104d0576101008083540402835291602001916104f9565b820191905f5260205f20905b8154815290600101906020018083116104dc57829003601f168201915b5050505050965085805461050c90611c4d565b80601f016020809104026020016040519081016040528092919081815260200182805461053890611c4d565b80156105835780601f1061055a57610100808354040283529160200191610583565b820191905f5260205f20905b81548152906001019060200180831161056657829003601f168201915b5050505050955084805480602002602001604051908101604052809291908181526020015f905b82821015610652578382905f5260205f200180546105c790611c4d565b80601f01602080910402602001604051908101604052809291908181526020018280546105f390611c4d565b801561063e5780601f106106155761010080835404028352916020019161063e565b820191905f5260205f20905b81548152906001019060200180831161062157829003601f168201915b5050505050815260200190600101906105aa565b50505050945098509850985098509850985098505050919395979092949650565b5f5f8551116106c45760405162461bcd60e51b815260206004820152601560248201527f5469746c652063616e6e6f7420626520656d7074790000000000000000000000604482015260640161027f565b60028351101580156106d857506010835111155b6107245760405162461bcd60e51b815260206004820152601660248201527f4d757374206861766520322d3136206f7074696f6e7300000000000000000000604482015260640161027f565b5f8267ffffffffffffffff161161077d5760405162461bcd60e51b815260206004820152601960248201527f4475726174696f6e206d75737420626520706f73697469766500000000000000604482015260640161027f565b60018054905f61078c83611c7f565b909155505f818152602081905260409020909150806107ab8782611ce3565b50600181016107ba8682611ce3565b5083516107d090600283019060208701906115b4565b506107db8342611d9e565b60038201805467ffffffffffffffff9283167fffffffff00000000000000000000000000000000000000000000000000000000909116173368010000000000000000021760ff60e01b191690555f6006830155845190811115610840576108406118e6565b604051908082528060200260200182016040528015610869578160200160208202803683370190505b508051610880916004840191602090910190611604565b50835167ffffffffffffffff81111561089b5761089b6118e6565b6040519080825280602002602001820160405280156108c4578160200160208202803683370190505b5080516108db916005840191602090910190611649565b506003810154604051339184917f445de8c3a57927e557c4e8d1660adaeb40b0f627ccc4aac67cadeea64377d01d91610924918b918a9167ffffffffffffffff90911690611dbe565b60405180910390a350949350505050565b606081600154811061097f5760405162461bcd60e51b8152602060048201526013602482015272159bdd1948191bd95cc81b9bdd08195e1a5cdd606a1b604482015260640161027f565b5f8381526020819052604090206003810154600160e01b900460ff166109e75760405162461bcd60e51b815260206004820152601960248201527f526573756c7473206e6f74207965742064656372797074656400000000000000604482015260640161027f565b80600501805480602002602001604051908101604052809291908181526020018280548015610a5e57602002820191905f5260205f20905f905b82829054906101000a900463ffffffff1663ffffffff1681526020019060040190602082600301049283019260010382029150808411610a215790505b505050505092505050919050565b836001548110610ab45760405162461bcd60e51b8152602060048201526013602482015272159bdd1948191bd95cc81b9bdd08195e1a5cdd606a1b604482015260640161027f565b5f85815260208190526040902060030154859067ffffffffffffffff164210610b1f5760405162461bcd60e51b815260206004820152601760248201527f566f74696e6720706572696f642068617320656e646564000000000000000000604482015260640161027f565b5f8681526020819052604090206003810154600160e01b900460ff1615610b885760405162461bcd60e51b815260206004820152601760248201527f566f746520686173206265656e20646563727970746564000000000000000000604482015260640161027f565b5f87815260026020908152604080832033845290915290205460ff1615610bf15760405162461bcd60e51b815260206004820152600d60248201527f416c726561647920766f74656400000000000000000000000000000000000000604482015260640161027f565b5f610c318787878080601f0160208091040260200160405190810160405280939291908181526020018383808284375f9201919091525061103a92505050565b90505f5b6002830154811015610d59575f610c5483610c4f84611050565b611062565b90505f610c7382610c656001611050565b610c6e5f611050565b611090565b9050610c9c856004018481548110610c8d57610c8d611dfd565b905f5260205f200154826110a6565b856004018481548110610cb157610cb1611dfd565b905f5260205f200181905550610ce3856004018481548110610cd557610cd5611dfd565b905f5260205f2001546110d4565b50610d0b856004018481548110610cfc57610cfc611dfd565b905f5260205f200154336110e3565b50610d4e856004018481548110610d2457610d24611dfd565b5f9182526020909120015460038701546801000000000000000090046001600160a01b03166110e3565b505050600101610c35565b505f8881526002602090815260408083203384529091528120805460ff1916600117905560068301805491610d8d83611c7f565b9091555050604051339089907ff1003b73c437642c0460aee9cd9628b0b8c447b66e6c7c905531b9c644214a11905f90a35050505050505050565b806001548110610e105760405162461bcd60e51b8152602060048201526013602482015272159bdd1948191bd95cc81b9bdd08195e1a5cdd606a1b604482015260640161027f565b5f828152602081905260408120905b6004820154811015610e4c57610e43826004018281548110610cfc57610cfc611dfd565b50600101610e1f565b50604051339084907f19716c4c09cec93927daebddc7c66646c42cf90a57f0b90e48468e4651d2dad7905f90a3505050565b826001548110610ec65760405162461bcd60e51b8152602060048201526013602482015272159bdd1948191bd95cc81b9bdd08195e1a5cdd606a1b604482015260640161027f565b5f84815260208190526040902060028101548314610f265760405162461bcd60e51b815260206004820152601660248201527f496e76616c696420726573756c7473206c656e67746800000000000000000000604482015260640161027f565b5f5b83811015610faa57848482818110610f4257610f42611dfd565b9050602002016020810190610f579190611e11565b826005018281548110610f6c57610f6c611dfd565b905f5260205f2090600891828204019190066004026101000a81548163ffffffff021916908363ffffffff1602179055508080600101915050610f28565b50600301805460ff60e01b1916600160e01b17905550505050565b5f82600154811061100e5760405162461bcd60e51b8152602060048201526013602482015272159bdd1948191bd95cc81b9bdd08195e1a5cdd606a1b604482015260640161027f565b50505f9182526002602090815260408084206001600160a01b0393909316845291905290205460ff1690565b5f611047838360046110f5565b90505b92915050565b5f61104a8263ffffffff166004611215565b5f82611074576110715f611050565b92505b81611085576110825f611050565b91505b61104783835f6112d2565b5f61109c8484846113cd565b90505b9392505050565b5f826110b8576110b55f611050565b92505b816110c9576110c65f611050565b91505b61104783835f611476565b5f6110df823061152b565b5090565b5f6110ee838361152b565b5090919050565b7f9e7b61f58c47dc699ac88507c4f5bb9f121c03808c5676a8078fe583e46497015460405163196d0b9b60e01b81525f917f9e7b61f58c47dc699ac88507c4f5bb9f121c03808c5676a8078fe583e4649700916001600160a01b039091169063196d0b9b9061116e908890339089908990600401611e54565b6020604051808303815f875af115801561118a573d5f5f3e3d5ffd5b505050506040513d601f19601f820116820180604052508101906111ae9190611e8a565b8154604051630f8e573b60e21b8152600481018390523360248201529193506001600160a01b031690633e395cec906044015f604051808303815f87803b1580156111f7575f5ffd5b505af1158015611209573d5f5f3e3d5ffd5b50505050509392505050565b7f9e7b61f58c47dc699ac88507c4f5bb9f121c03808c5676a8078fe583e464970154604051639cd07acb60e01b81525f917f9e7b61f58c47dc699ac88507c4f5bb9f121c03808c5676a8078fe583e4649700916001600160a01b0390911690639cd07acb9061128a9087908790600401611ea1565b6020604051808303815f875af11580156112a6573d5f5f3e3d5ffd5b505050506040513d601f19601f820116820180604052508101906112ca9190611e8a565b949350505050565b5f5f82156112e55750600160f81b6112e8565b505f5b7f9e7b61f58c47dc699ac88507c4f5bb9f121c03808c5676a8078fe583e46497015460405163f77f3f1d60e01b815260048101879052602481018690527fff00000000000000000000000000000000000000000000000000000000000000831660448201527f9e7b61f58c47dc699ac88507c4f5bb9f121c03808c5676a8078fe583e4649700916001600160a01b03169063f77f3f1d906064015b6020604051808303815f875af115801561139f573d5f5f3e3d5ffd5b505050506040513d601f19601f820116820180604052508101906113c39190611e8a565b9695505050505050565b5f807f9e7b61f58c47dc699ac88507c4f5bb9f121c03808c5676a8078fe583e46497006001810154604051637702dcff60e01b81526004810188905260248101879052604481018690529192506001600160a01b031690637702dcff906064016020604051808303815f875af1158015611449573d5f5f3e3d5ffd5b505050506040513d601f19601f8201168201806040525081019061146d9190611e8a565b95945050505050565b5f5f82156114895750600160f81b61148c565b505f5b7f9e7b61f58c47dc699ac88507c4f5bb9f121c03808c5676a8078fe583e46497015460405163022f65e760e31b815260048101879052602481018690527fff00000000000000000000000000000000000000000000000000000000000000831660448201527f9e7b61f58c47dc699ac88507c4f5bb9f121c03808c5676a8078fe583e4649700916001600160a01b03169063117b2f3890606401611383565b5f7f9e7b61f58c47dc699ac88507c4f5bb9f121c03808c5676a8078fe583e46497008054604051635ca4b5b160e11b8152600481018690526001600160a01b03858116602483015292935091169063b9496b62906044015f604051808303815f87803b158015611599575f5ffd5b505af11580156115ab573d5f5f3e3d5ffd5b50505050505050565b828054828255905f5260205f209081019282156115f8579160200282015b828111156115f857825182906115e89082611ce3565b50916020019190600101906115d2565b506110df9291506116f0565b828054828255905f5260205f2090810192821561163d579160200282015b8281111561163d578251825591602001919060010190611622565b506110df92915061170c565b828054828255905f5260205f209060070160089004810192821561163d579160200282015f5b838211156116b357835183826101000a81548163ffffffff021916908363ffffffff160217905550926020019260040160208160030104928301926001030261166f565b80156116e35782816101000a81549063ffffffff02191690556004016020816003010492830192600103026116b3565b50506110df92915061170c565b808211156110df575f6117038282611720565b506001016116f0565b5b808211156110df575f815560010161170d565b50805461172c90611c4d565b5f825580601f1061173b575050565b601f0160209004905f5260205f2090810190611757919061170c565b50565b5f6020828403121561176a575f5ffd5b5035919050565b602080825282518282018190525f918401906040840190835b818110156117a857835183526020938401939092019160010161178a565b509095945050505050565b5f5f604083850312156117c4575f5ffd5b8235915060208301356001600160a01b03811681146117e1575f5ffd5b809150509250929050565b5f81518084528060208401602086015e5f602082860101526020601f19601f83011685010191505092915050565b5f82825180855260208501945060208160051b830101602085015f5b8381101561186857601f198584030188526118528383516117ec565b6020988901989093509190910190600101611836565b50909695505050505050565b60e081525f61188660e083018a6117ec565b8281036020840152611898818a6117ec565b905082810360408401526118ac818961181a565b67ffffffffffffffff97909716606084015250506001600160a01b0393909316608084015290151560a083015260c0909101529392505050565b634e487b7160e01b5f52604160045260245ffd5b604051601f8201601f1916810167ffffffffffffffff81118282101715611923576119236118e6565b604052919050565b5f82601f83011261193a575f5ffd5b813567ffffffffffffffff811115611954576119546118e6565b611967601f8201601f19166020016118fa565b81815284602083860101111561197b575f5ffd5b816020850160208301375f918101602001919091529392505050565b803567ffffffffffffffff811681146119ae575f5ffd5b919050565b5f5f5f5f608085870312156119c6575f5ffd5b843567ffffffffffffffff8111156119dc575f5ffd5b6119e88782880161192b565b945050602085013567ffffffffffffffff811115611a04575f5ffd5b611a108782880161192b565b935050604085013567ffffffffffffffff811115611a2c575f5ffd5b8501601f81018713611a3c575f5ffd5b803567ffffffffffffffff811115611a5657611a566118e6565b8060051b611a66602082016118fa565b9182526020818401810192908101908a841115611a81575f5ffd5b6020850192505b83831015611ac757823567ffffffffffffffff811115611aa6575f5ffd5b611ab58c60208389010161192b565b83525060209283019290910190611a88565b8096505050505050611adb60608601611997565b905092959194509250565b602080825282518282018190525f918401906040840190835b818110156117a857835163ffffffff16835260209384019390920191600101611aff565b5f5f5f5f60608587031215611b36575f5ffd5b8435935060208501359250604085013567ffffffffffffffff811115611b5a575f5ffd5b8501601f81018713611b6a575f5ffd5b803567ffffffffffffffff811115611b80575f5ffd5b876020828401011115611b91575f5ffd5b949793965060200194505050565b5f5f5f60408486031215611bb1575f5ffd5b83359250602084013567ffffffffffffffff811115611bce575f5ffd5b8401601f81018613611bde575f5ffd5b803567ffffffffffffffff811115611bf4575f5ffd5b8660208260051b8401011115611c08575f5ffd5b939660209190910195509293505050565b634e487b7160e01b5f52601160045260245ffd5b67ffffffffffffffff828116828216039081111561104a5761104a611c19565b600181811c90821680611c6157607f821691505b6020821081036102e257634e487b7160e01b5f52602260045260245ffd5b5f60018201611c9057611c90611c19565b5060010190565b601f821115611cde57805f5260205f20601f840160051c81016020851015611cbc5750805b601f840160051c820191505b81811015611cdb575f8155600101611cc8565b50505b505050565b815167ffffffffffffffff811115611cfd57611cfd6118e6565b611d1181611d0b8454611c4d565b84611c97565b6020601f821160018114611d43575f8315611d2c5750848201515b5f19600385901b1c1916600184901b178455611cdb565b5f84815260208120601f198516915b82811015611d725787850151825560209485019460019092019101611d52565b5084821015611d8f57868401515f19600387901b60f8161c191681555b50505050600190811b01905550565b67ffffffffffffffff818116838216019081111561104a5761104a611c19565b606081525f611dd060608301866117ec565b8281036020840152611de2818661181a565b91505067ffffffffffffffff83166040830152949350505050565b634e487b7160e01b5f52603260045260245ffd5b5f60208284031215611e21575f5ffd5b813563ffffffff8116811461109f575f5ffd5b60548110611e5057634e487b7160e01b5f52602160045260245ffd5b9052565b8481526001600160a01b0384166020820152608060408201525f611e7b60808301856117ec565b905061146d6060830184611e34565b5f60208284031215611e9a575f5ffd5b5051919050565b8281526040810161109f6020830184611e3456fea164736f6c634300081b000a",
  "devdoc": {
    "details": "Votes are aggregated homomorphically during the voting period and decrypted after the deadline",
    "kind": "dev",
    "methods": {
      "castVote(uint256,bytes32,bytes)": {
        "params": {
          "encryptedOptionIndex": "Encrypted index of the selected option",
          "inputProof": "Proof for the encrypted input",
          "voteId": "The vote ID"
        }
      },
      "createVote(string,string,string[],uint64)": {
        "params": {
          "description": "Description of the vote",
          "duration": "Duration in seconds from now until the deadline",
          "options": "Array of voting options (2-16 options)",
          "title": "The vote title"
        },
        "returns": {
          "voteId": "The ID of the created vote"
        }
      },
      "getEncryptedCounts(uint256)": {
        "params": {
          "voteId": "The vote ID"
        },
        "returns": {
          "encryptedCounts": "Array of encrypted vote counts as euint32"
        }
      },
      "getResults(uint256)": {
        "params": {
          "voteId": "The vote ID"
        }
      },
      "getVote(uint256)": {
        "params": {
          "voteId": "The vote ID"
        }
      },
      "getVoteStatus(uint256)": {
        "params": {
          "voteId": "The vote ID"
        }
      },
      "hasUserVoted(uint256,address)": {
        "params": {
          "voteId": "The vote ID",
          "voter": "The voter address"
        }
      },
      "markAsDecrypted(uint256,uint32[])": {
        "params": {
          "voteId": "The vote ID"
        }
      },
      "requestDecryptionAccess(uint256)": {
        "details": "Grants the caller permission to decrypt vote counts using client-side decryption",
        "params": {
          "voteId": "The vote ID"
        }
      }
    },
    "title": "Time-Locked Encrypted Vote",
    "version": 1
  },
  "userdoc": {
    "kind": "user",
    "methods": {
      "castVote(uint256,bytes32,bytes)": {
        "notice": "Cast an encrypted vote"
      },
      "createVote(string,string,string[],uint64)": {
        "notice": "Create a new time-locked vote"
      },
      "getEncryptedCounts(uint256)": {
        "notice": "Get encrypted counts for client-side decryption"
      },
      "getResults(uint256)": {
        "notice": "Get decrypted results (only available after decryption)"
      },
      "getVote(uint256)": {
        "notice": "Get vote information"
      },
      "getVoteCount()": {
        "notice": "Get the total number of votes"
      },
      "getVoteStatus(uint256)": {
        "notice": "Get vote status"
      },
      "hasUserVoted(uint256,address)": {
        "notice": "Check if an address has voted"
      },
      "markAsDecrypted(uint256,uint32[])": {
        "notice": "Mark vote as decrypted (for UI purposes, anyone can call after decrypting)"
      },
      "requestDecryptionAccess(uint256)": {
        "notice": "Request decryption access for vote results (anyone can call)"
      }
    },
    "notice": "A voting system where votes remain encrypted until the deadline passes",
    "version": 1
  },
  "storageLayout": {
    "storage": [
      {
        "astId": 39065,
        "contract": "contracts/TimeLockedVote.sol:TimeLockedVote",
        "label": "_votes",
        "offset": 0,
        "slot": "0",
        "type": "t_mapping(t_uint256,t_struct(Vote)39060_storage)"
      },
      {
        "astId": 39067,
        "contract": "contracts/TimeLockedVote.sol:TimeLockedVote",
        "label": "_voteCount",
        "offset": 0,
        "slot": "1",
        "type": "t_uint256"
      },
      {
        "astId": 39073,
        "contract": "contracts/TimeLockedVote.sol:TimeLockedVote",
        "label": "hasVoted",
        "offset": 0,
        "slot": "2",
        "type": "t_mapping(t_uint256,t_mapping(t_address,t_bool))"
      }
    ],
    "types": {
      "t_address": {
        "encoding": "inplace",
        "label": "address",
        "numberOfBytes": "20"
      },
      "t_array(t_string_storage)dyn_storage": {
        "base": "t_string_storage",
        "encoding": "dynamic_array",
        "label": "string[]",
        "numberOfBytes": "32"
      },
      "t_array(t_uint32)dyn_storage": {
        "base": "t_uint32",
        "encoding": "dynamic_array",
        "label": "uint32[]",
        "numberOfBytes": "32"
      },
      "t_array(t_userDefinedValueType(euint32)39763)dyn_storage": {
        "base": "t_userDefinedValueType(euint32)39763",
        "encoding": "dynamic_array",
        "label": "euint32[]",
        "numberOfBytes": "32"
      },
      "t_bool": {
        "encoding": "inplace",
        "label": "bool",
        "numberOfBytes": "1"
      },
      "t_mapping(t_address,t_bool)": {
        "encoding": "mapping",
        "key": "t_address",
        "label": "mapping(address => bool)",
        "numberOfBytes": "32",
        "value": "t_bool"
      },
      "t_mapping(t_uint256,t_mapping(t_address,t_bool))": {
        "encoding": "mapping",
        "key": "t_uint256",
        "label": "mapping(uint256 => mapping(address => bool))",
        "numberOfBytes": "32",
        "value": "t_mapping(t_address,t_bool)"
      },
      "t_mapping(t_uint256,t_struct(Vote)39060_storage)": {
        "encoding": "mapping",
        "key": "t_uint256",
        "label": "mapping(uint256 => struct TimeLockedVote.Vote)",
        "numberOfBytes": "32",
        "value": "t_struct(Vote)39060_storage"
      },
      "t_string_storage": {
        "encoding": "bytes",
        "label": "string",
        "numberOfBytes": "32"
      },
      "t_struct(Vote)39060_storage": {
        "encoding": "inplace",
        "label": "struct TimeLockedVote.Vote",
        "members": [
          {
            "astId": 39039,
            "contract": "contracts/TimeLockedVote.sol:TimeLockedVote",
            "label": "title",
            "offset": 0,
            "slot": "0",
            "type": "t_string_storage"
          },
          {
            "astId": 39041,
            "contract": "contracts/TimeLockedVote.sol:TimeLockedVote",
            "label": "description",
            "offset": 0,
            "slot": "1",
            "type": "t_string_storage"
          },
          {
            "astId": 39044,
            "contract": "contracts/TimeLockedVote.sol:TimeLockedVote",
            "label": "options",
            "offset": 0,
            "slot": "2",
            "type": "t_array(t_string_storage)dyn_storage"
          },
          {
            "astId": 39046,
            "contract": "contracts/TimeLockedVote.sol:TimeLockedVote",
            "label": "deadline",
            "offset": 0,
            "slot": "3",
            "type": "t_uint64"
          },
          {
            "astId": 39048,
            "contract": "contracts/TimeLockedVote.sol:TimeLockedVote",
            "label": "creator",
            "offset": 8,
            "slot": "3",
            "type": "t_address"
          },
          {
            "astId": 39050,
            "contract": "contracts/TimeLockedVote.sol:TimeLockedVote",
            "label": "isDecrypted",
            "offset": 28,
            "slot": "3",
            "type": "t_bool"
          },
          {
            "astId": 39054,
            "contract": "contracts/TimeLockedVote.sol:TimeLockedVote",
            "label": "encryptedCounts",
            "offset": 0,
            "slot": "4",
            "type": "t_array(t_userDefinedValueType(euint32)39763)dyn_storage"
          },
          {
            "astId": 39057,
            "contract": "contracts/TimeLockedVote.sol:TimeLockedVote",
            "label": "decryptedCounts",
            "offset": 0,
            "slot": "5",
            "type": "t_array(t_uint32)dyn_storage"
          },
          {
            "astId": 39059,
            "contract": "contracts/TimeLockedVote.sol:TimeLockedVote",
            "label": "totalVoters",
            "offset": 0,
            "slot": "6",
            "type": "t_uint256"
          }
        ],
        "numberOfBytes": "224"
      },
      "t_uint256": {
        "encoding": "inplace",
        "label": "uint256",
        "numberOfBytes": "32"
      },
      "t_uint32": {
        "encoding": "inplace",
        "label": "uint32",
        "numberOfBytes": "4"
      },
      "t_uint64": {
        "encoding": "inplace",
        "label": "uint64",
        "numberOfBytes": "8"
      },
      "t_userDefinedValueType(euint32)39763": {
        "encoding": "inplace",
        "label": "euint32",
        "numberOfBytes": "32"
      }
    }
  }
}